{
  "contractName": "TodoList",
  "abi": [
    {
      "constant": true,
      "inputs": [],
      "name": "taskCount",
      "outputs": [
        {
          "name": "",
          "type": "uint256"
        }
      ],
      "payable": false,
      "stateMutability": "view",
      "type": "function"
    }
  ],
  "bytecode": "0x608060405260008055348015601357600080fd5b50609e806100226000396000f3fe608060405260043610603f576000357c0100000000000000000000000000000000000000000000000000000000900463ffffffff168063b6cb58a5146044575b600080fd5b348015604f57600080fd5b506056606c565b6040518082815260200191505060405180910390f35b6000548156fea165627a7a72305820c7de4e81f115c87ee75e69dd7b86bf295e585c5589e11e191361a938e6abefe10029",
  "source": "//Declare version\npragma solidity ^0.5.0;\n\n//Declare contract\ncontract  TodoList {\n  uint public taskCount = 0;\n  //Declare variables with unit\n  //'State variables' inside of Solidity are written to the blockchain\n  //They state of the smart contract will change anytime this state changes\n  //Similar to class vars in obj oriented context\n  //Scope of the state var belongs to entire smart contract\n\n  //'Public' allows us to read the variable from the State (taskCount)\n  //Solidity gives us a function by using 'Public'\n}",
  "sourcePath": "/Users/steveboyer/Cymatics/eth-todo-list/contracts/TodoList.sol",
  "compiler": {
    "name": "solc",
    "version": "0.5.0+commit.1d4f565a.Emscripten.clang"
  },
  "schemaVersion": "3.0.1",
  "updatedAt": "2021-09-22T19:47:23.483Z",
  "devdoc": {
    "methods": {}
  },
  "userdoc": {
    "methods": {}
  }
}